202310290014746200000000025629897472000000000256298974729600000000031372438606Juan Perez Consultora         000000000982313000000000000000000000000000000000000000000000000000000000000000000000000000000000000000000000000000000000PES00010000001A00000000000000020231029
202310110114406100000000099596699758000000000995966997588000000000038903858533Mariela Rodríguez             000000000355660000000000000000000000000000000000000000015000000000000000000000000000008818000000000000000000000000000000PES00010000001A00000000000000020231011
202310100019258700000000071155708966000000000711557089669900000000000000000000CONSUMIDOR FINAL              000000000254158000000000000000000000000010502000000000000000000000000000000000000000006301000000000000000000000000000000PES00010000001A00000000000000020231010
202311030014980900000000037632831167000000000376328311678000000000021124974645Juan Perez Consultora         000000000903743000000000000000000000000000000000000000015000000000000000000000000000022406000000000000000000000000000000PES00010000001A00000000000000020231103
202311160118590400000000037938418208000000000379384182089600000000020119696521Juan Perez Consultora         000000000198031000000000001050000000000000000000000000000000000000000000000000000000000000000000000000000000000000000000PES00010000001A00000000000000020231116
202310060018743300000000016264102400000000000162641024009600000000034187792008EMPRESA XYZ S.A.              000000000293353000000000001050000000000012122000000000015000000000000000000000000000000000000000000000000000000000000000PES00010000001A00000000000000020231006
202310080011065900000000055173274029000000000551732740298000000000029987258485EMPRESA XYZ S.A.              000000000777075000000000000000000000000000000000000000000000000000000000000000000000000000000000000000000000000000000000PES00010000001A00000000000000020231008
202311160061173700000000070609192958000000000706091929589900000000000000000000CONSUMIDOR FINAL              000000000141990000000000000000000000000000000000000000000000000000000000000000000000003520000000000000000000000000000000PES00010000001A00000000000000020231116
202311050016966300000000005207790102000000000052077901029600000000035198192475DISTRIBUIDORA NORTE           000000000715718000000000000000000000000029575000000000000000000000000000000000000000017745000000000000000000000000000000PES00010000001A00000000000000020231105
202311070110901500000000062517650049000000000625176500498000000000023028869069Juan Perez Consultora         000000000280493000000000000000000000000011590000000000000000000000000000000000000000000000000000000000000000000000000000PES00010000001A00000000000000020231107